:03000000020DC628
:0C0DC600787FE4F6D8FD75816F020E0DF9
:100F5D004265737428312900576F727374283829CC
:090F6D000048657920596F550018
:100E5200093A653934303834303332035672756E9C
:100E6200095973686F74646F776E4E0362746170B0
:100E7200034564656C05354C43446F6E062F4C4345
:100E8200446F666602480000024A000002540000F5
:100E9200020C00000211000002190000020F000003
:100EA20002170000021B00000215000002080000E9
:100EB200025200000265000002430000024C00C022
:100EC200024E008002500000020A0000021D0000D3
:040ED2000213000007
:100B7900D2A0D2A1D2A2D2A3D2A4D2A5D2A6D2A7C0
:100B8900120F87D290120F87120F76E4FDFC7F387F
:100B9900120F49E4FDFC7F0F120F49E4FDFC7F06AB
:100BA900120F49E4FDFC7F01120F49E4FDFC7F802F
:100BB900120F49E4FDFC7F40120F497D017C00E4DE
:100BC900FF120F497D017C007F0A120F497D017CCC
:100BD900007F0A120F497D017C00E4FF120F497D55
:100BE900017C007F11120F497D017C007F0E120FDD
:100BF900497D017C00E4FF120F497D017C00E4FF7F
:100C0900120F49E4FDFC7F48120F49120F437D0181
:100C19007C007F03120F497D017C007F05120F497B
:100C29007D017C007F09120F497D017C007F0B1239
:100C39000F497D017C007F1B120F497D017C007FDC
:0F0C490018120F497D017C00E4FF120F4980FE55
:100F7600759850758921758DE6D28E75A897D2AA77
:010F86002248
:03002300020800D0
:10080000C0E0C0F0C083C082C0D075D000C000C0BE
:1008100001C002C003C004C005C006C0073098FD77
:10082000C29885990E741F2553F8A60E0553E553FB
:10083000700205527F887E13120F8BE4FDFC7F3817
:10084000120F49E4FDFC7F0F120F49E4FDFC7F0607
:10085000120F49E4FDFC7F01120F49E4FDFC7F808B
:10086000120F49AF4DE4FDFC120F49C3E54B955300
:10087000E5526480F8E54A6480985025AF4DE4FD68
:10088000FC120F49743A254BF9E4FAFB120F1C05D0
:100890004DE54D7002054C054BE54B70CE054A8089
:1008A000CA754C00754DC0754A00754B00743A25E9
:1008B00055F8E6B50E0A0555E555700A055480064B
:1008C00075540075550074452509F8E6B50E0A05FE
:1008D00009E509700A0508800675080075090074A5
:1008E000622516F8E6B50E0A0516E516700A051516
:1008F00080067515007516007456250DF8E6B50EC0
:100900000A050DE50D700A050C8006750C00750DC5
:100910000074592510F8E6B50E0A0510E510700AA6
:10092000050F8006750F00751000E50D6403450C7A
:100930007035C3E5129428E511648094805019E461
:10094000FDFC7F1C120F497F107E27120F8B0512B2
:10095000E51270DE051180DA751100751200750C54
:1009600000750D00020B5EE5106409450F7070D232
:1009700096D297D2A0D2A1D2A2D2A3D2A4D2A5D2EB
:10098000A6D2A7FDFC7F08120F49120F87D29075DF
:100990004300754400742F2544F8E6F5993099FD1D
:1009A000C2990544E544700205436406454370E579
:1009B000120F87750A00750B007E007F107D007B8B
:1009C000007A00791F120EF0AF4DE4FDFC120F49C2
:1009D000755200755300750F00751000020B5EE52F
:1009E000166403451570487F107E27120F8BE4FDB7
:1009F000FC7FCF120F49120F43120F87E4FDFC7FDB
:100A0000CE120F49120F43120F87E4FDFC7FCD1267
:100A10000F49120F43120F87E4FDFC7FCC120F49E0
:100A2000120F43120F87751500751600020B5EE555
:100A30000964034508702F7F107E27120F8BE4FD99
:100A4000FC7F01120F49E4FDFC7FC0120F497E00BC
:100A50007F107D007B007A00791F120EF075080070
:100A6000750900020B5EE555640945546003020BED
:100A70005E7F207E4E120F8BC290756500756600FA
:100A800074352566F8E6F5993099FDC2990566E555
:100A900066700205656405456570E57F207E4E122F
:100AA0000F8BE4FDFC7F40120F497D017C00E4FFC9
:100AB000120F497D017C007F0A120F497D017C00E5
:100AC0007F0A120F497D017C00E4FF120F497D016E
:100AD0007C007F11120F497D017C007F0E120F49AF
:100AE0007D017C00E4FF120F497D017C00E4FF12D0
:100AF0000F49E4FDFC7F80120F497D017C00E4FF7B
:100B0000120F49E4FDFC7F48120F49120F437D018B
:100B10007C007F03120F497D017C007F05120F4985
:100B20007D017C007F09120F497D017C007F0B1243
:100B30000F497D017C007F1B120F497D017C007FE6
:100B400018120F497D017C00E4FF120F49E4FDFCFF
:100B50007F8F120F49120F43750A00750B01D007E2
:100B6000D006D005D004D003D002D001D000D0D020
:090B7000D082D083D0F0D0E03235
:03000300020D23C8
:100D2300C0E0C0F0C083C082C0D075D000C000C096
:100D330001C002C003C004C005C006C007120F876C
:100D4300E51E451D702BF51D751E01FDFC7F081268
:100D53000F49E4FDFC7F01120F497E007F107D00E7
:100D63007B007A00791F120EF075520075530080D4
:100D730030E4FDFC7F0C120F49E4FDFC7F80120F71
:100D8300497BFF7A0F795D120F1CE4FDFC7FC012D3
:100D93000F497BFF7A0F7965120F1C751D00751EB5
:100DA300007F107E27120F8BD007D006D005D0040A
:100DB300D003D002D001D000D0D0D082D083D0F0E5
:030DC300D0E0324B
:100F1C008B6D8A6E896FAB6DAA6EA96F120ED7FF9F
:100F2C0060147D017C00120F497401256FF56FE48C
:070F3C00356EF56E80E02226
:060F43007D017C007F012E
:100F49008FA0EC4D24FF9296D2977F647E00120FFA
:040F59008BC297228E
:03001300020C5884
:100C5800C0E0C0F0C083C082C0D075D000C000C062
:100C680001C002C003C004C005C006C0077F107ED3
:100C780027120F8BE4FDFC7F01120F49E4FDFC7F76
:100C880080120F497BFF7A0F796E120F1CE51464EE
:100C98000245137028F550F551E4FDFC7F1C120F36
:100CA800497F107E27120F8B0551E55170020550C0
:100CB800C39428E5506480948040DE8034E5146451
:100CC800034513702CF550F551E4FDFC7F1C120F01
:100CD800497FD07E07120F8B0551E55170020550F0
:100CE800C39428E5506480948040DE751300751421
:100CF800000514E514700205137F107E27120F8B70
:100D0800D007D006D005D004D003D002D001D0003F
:0B0D1800D0D0D082D083D0F0D0E032E9
:040F87007F507EC356
:0B0F8B00EF1FAC0670011E4C70F62238
:100DD200020B79E493A3F8E493A34003F68001F2B3
:100DE20008DFF48029E493A3F85407240CC8C33322
:100DF200C4540F4420C8834004F456800146F6DFF1
:100E0200E4800B0102040810204080900E52E47E20
:100E1200019360BCA3FF543F30E509541FFEE493E5
:100E2200A360010ECF54C025E060A840B8E493A3AC
:100E3200FAE493A3F8E493A3C8C582C8CAC583CAD7
:100E4200F0A3C8C582C8CAC583CADFE9DEE780BE8F
:010ED600001B
:100ED700BB010689828A83E0225002E722BBFE0219
:090EE700E32289828A83E493224C
:100EF000EF4E6012EF60010EEDBB010B89828A8319
:100F0000F0A3DFFCDEFA2289F05007F709DFFCA925
:0C0F1000F022BBFEFCF309DFFCA9F0227C
:00000001FF
